{
  "contractName": "CitizenData",
  "abi": [
    {
      "inputs": [],
      "payable": false,
      "stateMutability": "nonpayable",
      "type": "constructor"
    },
    {
      "constant": true,
      "inputs": [
        {
          "internalType": "address",
          "name": "companyId",
          "type": "address"
        }
      ],
      "name": "getHealthDataRef",
      "outputs": [
        {
          "internalType": "string",
          "name": "",
          "type": "string"
        }
      ],
      "payable": false,
      "stateMutability": "view",
      "type": "function"
    },
    {
      "constant": true,
      "inputs": [
        {
          "internalType": "address",
          "name": "companyId",
          "type": "address"
        }
      ],
      "name": "getBankDataRef",
      "outputs": [
        {
          "internalType": "string",
          "name": "",
          "type": "string"
        }
      ],
      "payable": false,
      "stateMutability": "view",
      "type": "function"
    },
    {
      "constant": true,
      "inputs": [
        {
          "internalType": "address",
          "name": "companyId",
          "type": "address"
        }
      ],
      "name": "getCprDataRef",
      "outputs": [
        {
          "internalType": "string",
          "name": "",
          "type": "string"
        }
      ],
      "payable": false,
      "stateMutability": "view",
      "type": "function"
    },
    {
      "constant": false,
      "inputs": [
        {
          "internalType": "address",
          "name": "companyId",
          "type": "address"
        },
        {
          "internalType": "bool",
          "name": "permission",
          "type": "bool"
        }
      ],
      "name": "setHealthPermission",
      "outputs": [
        {
          "internalType": "string",
          "name": "",
          "type": "string"
        }
      ],
      "payable": false,
      "stateMutability": "nonpayable",
      "type": "function"
    },
    {
      "constant": false,
      "inputs": [
        {
          "internalType": "address",
          "name": "companyId",
          "type": "address"
        },
        {
          "internalType": "bool",
          "name": "permission",
          "type": "bool"
        }
      ],
      "name": "setBankPermission",
      "outputs": [
        {
          "internalType": "string",
          "name": "",
          "type": "string"
        }
      ],
      "payable": false,
      "stateMutability": "nonpayable",
      "type": "function"
    },
    {
      "constant": false,
      "inputs": [
        {
          "internalType": "address",
          "name": "companyId",
          "type": "address"
        },
        {
          "internalType": "bool",
          "name": "permission",
          "type": "bool"
        }
      ],
      "name": "setCprPermission",
      "outputs": [
        {
          "internalType": "string",
          "name": "",
          "type": "string"
        }
      ],
      "payable": false,
      "stateMutability": "nonpayable",
      "type": "function"
    }
  ],
  "bytecode": "0x608060405234801561001057600080fd5b5033600660006101000a81548173ffffffffffffffffffffffffffffffffffffffff021916908373ffffffffffffffffffffffffffffffffffffffff1602179055506040518060400160405280600481526020017f31313131000000000000000000000000000000000000000000000000000000008152506003908051906020019061009d92919061013b565b506040518060400160405280600481526020017f3232323200000000000000000000000000000000000000000000000000000000815250600490805190602001906100e992919061013b565b506040518060400160405280600481526020017f33333333000000000000000000000000000000000000000000000000000000008152506005908051906020019061013592919061013b565b506101e0565b828054600181600116156101000203166002900490600052602060002090601f016020900481019282601f1061017c57805160ff19168380011785556101aa565b828001600101855582156101aa579182015b828111156101a957825182559160200191906001019061018e565b5b5090506101b791906101bb565b5090565b6101dd91905b808211156101d95760008160009055506001016101c1565b5090565b90565b61093e806101ef6000396000f3fe608060405234801561001057600080fd5b50600436106100615760003560e01c8062df88f6146100665780630b0dfd471461009657806316e17ec0146100c657806342c0ede4146100f657806371ad406914610126578063b695210114610156575b600080fd5b610080600480360361007b9190810190610798565b610186565b60405161008d919061080d565b60405180910390f35b6100b060048036036100ab919081019061076f565b610276565b6040516100bd919061080d565b60405180910390f35b6100e060048036036100db919081019061076f565b610370565b6040516100ed919061080d565b60405180910390f35b610110600480360361010b9190810190610798565b61046a565b60405161011d919061080d565b60405180910390f35b610140600480360361013b9190810190610798565b61055b565b60405161014d919061080d565b60405180910390f35b610170600480360361016b919081019061076f565b61064c565b60405161017d919061080d565b60405180910390f35b6060600660009054906101000a900473ffffffffffffffffffffffffffffffffffffffff1673ffffffffffffffffffffffffffffffffffffffff163373ffffffffffffffffffffffffffffffffffffffff16146101e257600080fd5b816000808573ffffffffffffffffffffffffffffffffffffffff1673ffffffffffffffffffffffffffffffffffffffff16815260200190815260200160002060006101000a81548160ff0219169083151502179055506040518060400160405280601281526020017f5065726d697373696f6e206368616e6765640000000000000000000000000000815250905092915050565b6060600160008373ffffffffffffffffffffffffffffffffffffffff1673ffffffffffffffffffffffffffffffffffffffff16815260200190815260200160002060009054906101000a900460ff166102ce57600080fd5b60048054600181600116156101000203166002900480601f0160208091040260200160405190810160405280929190818152602001828054600181600116156101000203166002900480156103645780601f1061033957610100808354040283529160200191610364565b820191906000526020600020905b81548152906001019060200180831161034757829003601f168201915b50505050509050919050565b6060600260008373ffffffffffffffffffffffffffffffffffffffff1673ffffffffffffffffffffffffffffffffffffffff16815260200190815260200160002060009054906101000a900460ff166103c857600080fd5b60058054600181600116156101000203166002900480601f01602080910402602001604051908101604052809291908181526020018280546001816001161561010002031660029004801561045e5780601f106104335761010080835404028352916020019161045e565b820191906000526020600020905b81548152906001019060200180831161044157829003601f168201915b50505050509050919050565b6060600660009054906101000a900473ffffffffffffffffffffffffffffffffffffffff1673ffffffffffffffffffffffffffffffffffffffff163373ffffffffffffffffffffffffffffffffffffffff16146104c657600080fd5b81600260008573ffffffffffffffffffffffffffffffffffffffff1673ffffffffffffffffffffffffffffffffffffffff16815260200190815260200160002060006101000a81548160ff0219169083151502179055506040518060400160405280601281526020017f5065726d697373696f6e206368616e6765640000000000000000000000000000815250905092915050565b6060600660009054906101000a900473ffffffffffffffffffffffffffffffffffffffff1673ffffffffffffffffffffffffffffffffffffffff163373ffffffffffffffffffffffffffffffffffffffff16146105b757600080fd5b81600160008573ffffffffffffffffffffffffffffffffffffffff1673ffffffffffffffffffffffffffffffffffffffff16815260200190815260200160002060006101000a81548160ff0219169083151502179055506040518060400160405280601281526020017f5065726d697373696f6e206368616e6765640000000000000000000000000000815250905092915050565b60606000808373ffffffffffffffffffffffffffffffffffffffff1673ffffffffffffffffffffffffffffffffffffffff16815260200190815260200160002060009054906101000a900460ff166106a357600080fd5b60038054600181600116156101000203166002900480601f0160208091040260200160405190810160405280929190818152602001828054600181600116156101000203166002900480156107395780601f1061070e57610100808354040283529160200191610739565b820191906000526020600020905b81548152906001019060200180831161071c57829003601f168201915b50505050509050919050565b600081359050610754816108cd565b92915050565b600081359050610769816108e4565b92915050565b60006020828403121561078157600080fd5b600061078f84828501610745565b91505092915050565b600080604083850312156107ab57600080fd5b60006107b985828601610745565b92505060206107ca8582860161075a565b9150509250929050565b60006107df8261082f565b6107e9818561083a565b93506107f9818560208601610889565b610802816108bc565b840191505092915050565b6000602082019050818103600083015261082781846107d4565b905092915050565b600081519050919050565b600082825260208201905092915050565b600061085682610869565b9050919050565b60008115159050919050565b600073ffffffffffffffffffffffffffffffffffffffff82169050919050565b60005b838110156108a757808201518184015260208101905061088c565b838111156108b6576000848401525b50505050565b6000601f19601f8301169050919050565b6108d68161084b565b81146108e157600080fd5b50565b6108ed8161085d565b81146108f857600080fd5b5056fea365627a7a72315820bf6c86651c1cb821d39fe8190879c33ac0f187e58e1182ca834e462d5ea181ab6c6578706572696d656e74616cf564736f6c63430005100040",
  "source": "pragma solidity ^0.5.0;\npragma experimental ABIEncoderV2; //only for testing\n\ncontract CitizenData {\n    mapping(address => bool) private healthData;\n    mapping(address => bool) private bankData;\n    mapping(address => bool) private cprData;\n\n    string private healthRef;\n    string private bankRef;\n    string private cprRef;\n\n    address owner;\n\n    constructor() public {\n        owner = msg.sender;\n        healthRef = \"1111\";\n        bankRef = \"2222\";\n        cprRef = \"3333\";\n    }\n\n    function getHealthDataRef(address companyId) public view returns (string memory) {\n        require(healthData[companyId]);\n        return healthRef;\n    }\n\n    function getBankDataRef(address companyId) public view returns (string memory) {\n        require(bankData[companyId]);\n        return bankRef;\n    }\n\n    function getCprDataRef(address companyId) public view returns (string memory) {\n        require(cprData[companyId]);\n        return cprRef;\n    }\n\n    function setHealthPermission(address companyId, bool permission)\n        public\n        returns (string memory)\n    {\n        require(msg.sender == owner);\n        healthData[companyId] = permission;\n\n        return \"Permission changed\";\n    }\n\n    function setBankPermission(address companyId, bool permission)\n        public\n        returns (string memory)\n    {\n        require(msg.sender == owner);\n        bankData[companyId] = permission;\n\n        return \"Permission changed\";\n    }\n\n    function setCprPermission(address companyId, bool permission)\n        public\n        returns (string memory)\n    {\n        require(msg.sender == owner);\n        cprData[companyId] = permission;\n\n        return \"Permission changed\";\n    }\n}\n",
  "sourcePath": "/Users/antonschmidt/Projects/GDRP-Project/contracts/CitizenData.sol",
  "compiler": {
    "name": "solc",
    "version": "0.5.16+commit.9c3226ce.Emscripten.clang"
  },
  "schemaVersion": "3.4.3",
  "updatedAt": "2021-11-26T13:39:33.535Z",
  "devdoc": {
    "methods": {}
  },
  "userdoc": {
    "methods": {}
  }
}