{
  "contractName": "SimpleCounter",
  "abi": [
    {
      "constant": true,
      "inputs": [],
      "name": "count",
      "outputs": [
        {
          "internalType": "uint256",
          "name": "",
          "type": "uint256"
        }
      ],
      "payable": false,
      "stateMutability": "view",
      "type": "function"
    },
    {
      "constant": false,
      "inputs": [],
      "name": "addCount",
      "outputs": [],
      "payable": false,
      "stateMutability": "nonpayable",
      "type": "function"
    }
  ],
  "bytecode": "0x608060405260008055348015601357600080fd5b5060a9806100226000396000f3fe6080604052348015600f57600080fd5b506004361060325760003560e01c806306661abd1460375780636cefce6e146053575b600080fd5b603d605b565b6040518082815260200191505060405180910390f35b60596061565b005b60005481565b600080815480929190600101919050555056fea265627a7a7231582072ee04adaf7ca038460c87cccf5c7bee3ffb98d98ee0dcd23d80cbf15216f42f64736f6c63430005100032",
  "source": "pragma solidity ^0.5.0;\n\ncontract SimpleCounter {\n  uint public count = 0;\n\n  function addCount() public {\n      count++;\n  }\n}",
  "sourcePath": "/Users/antonschmidt/Projects/GDRP-Project/contracts/SimpleCounter.sol",
  "compiler": {
    "name": "solc",
    "version": "0.5.16+commit.9c3226ce.Emscripten.clang"
  },
  "schemaVersion": "3.4.3",
  "updatedAt": "2021-11-26T13:39:34.688Z",
  "networkType": "ethereum",
  "devdoc": {
    "methods": {}
  },
  "userdoc": {
    "methods": {}
  }
}